:100000000C9475000C948A000C948A000C948A005D
:100010000C948A000C948A000C948A000C948A0038
:100020000C948A000C948A000C948A000C948A0028
:100030000C948A000C948A000C948A000C948A0018
:100040000C948A000C948A000C948A000C948A0008
:100050000C948A000C948A000C948A000C948A00F8
:100060000C948A000C948A0007634236B79BD8A789
:100070001A39685618AEBAAB558C1D3CB7CC5763CD
:10008000BD6DEDFD753EF6177231BF000000803F7B
:1000900008000000BE922449123EABAAAA2ABECD97
:1000A000CCCC4C3E00000080BEABAAAAAA3E000009
:1000B0000000BF000000803F000000000008417801
:1000C000D3BB4387D1133D190E3CC3BD4282AD2B38
:1000D0003E68EC8276BED98FE1A93E4C80EFFFBE30
:1000E00001C4FF7F3F000000000011241FBECFEFBE
:1000F000D8E0DEBFCDBF11E0A0E0B1E0EAEDFBE16A
:1001000002C005900D92A835B107D9F70E948B0760
:100110000C94EB0D0C940000FC0113826083862F7D
:10012000880F8183682F6160628308958F929F9208
:10013000AF92BF92CF92DF92EF92FF92CF93DF9375
:10014000EC010E94CE0589810E94EE058AEF0E9493
:10015000EE050E94CE058A810E94EE050E94DA0516
:1001600090E0B0E0A0E0CC24D82EE92EFA2E0E9438
:10017000DA05C82AFE2CED2CDC2CCC240E94E405E8
:10018000C82A0E94D605888599858D2C9E2CAF2C77
:10019000BB24B0E0A0E0881A990AAA0ABB0A57E07B
:1001A000F694E794D794C7945A95D1F7880F991F7E
:1001B000AA1FBB1FA7019601281B390B4A0B5B0B1B
:1001C000AA85BB850E9441086B017C017BE0F69407
:1001D000E794D794C7947A95D1F7A5019401C50106
:1001E000B4010E9403089B01AC01ECE056954795D1
:1001F00037952795EA95D1F7AC85BD850E944108D2
:10020000FEE09695879577956795FA95D1F7C60E96
:10021000D71EE81EF91ECC82DD82EE82FF82C70166
:10022000B601660F771F881F991F660F771F881FFB
:10023000991F6C0D7D1D8E1D9F1D60587F4F8F4F28
:100240009F4F672F782F892F992787FD9A950E94B6
:10025000FB0A20E030E048EC52E40E94520ADF91B1
:10026000CF91FF90EF90DF90CF90BF90AF909F9095
:100270008F9008954F925F926F927F928F929F928C
:10028000AF92BF92CF92DF92EF92FF92CF93DF9324
:10029000EC010E9496000E94CE0589810E94EE0525
:1002A0008DEF0E94EE050E94CE058A810E94EE0528
:1002B0000E94DA0590E0B0E0A0E0CC24D82EE92E30
:1002C000FA2E0E94E405C82A0E94D6058BE0C114CC
:1002D00020E8D206E104F10409F4BBC08C809D80C3
:1002E000AE80BF808CE2981A81E0A80AB1083EE097
:1002F000CC0CDD1CEE1CFF1C3A95D1F78CA19DA106
:10030000092E000CAA0BBB0B44E1880F991FAA1FF2
:10031000BB1F4A95D1F7C81AD90AEA0AFB0AAEA14F
:10032000BFA1A50194010E944108C61AD70AE80A94
:10033000F90A20E4D20EE11CF11C5FE0F594E79489
:10034000D794C7945A95D1F7ABA1B0E0A501940119
:100350000E9436082B013C016BE07594679457941A
:1003600047946A95D1F780E8580E611C711CA8A5C6
:100370000A2E000CBB0B0E944108EAE09595879578
:1003800077956795EA95D1F7A30192010E9403083A
:100390009B01AC01FAE05595479537952795FA955D
:1003A000D1F7405E5F4FA9A1BAA10E944108705EDB
:1003B0008F4F9F4FAEE09595879577956795AA9556
:1003C000D1F7A70196010E9403086B017C01BFE0F1
:1003D0009595879577956795BA95D1F79B01AC016F
:1003E0000E9403089B01AC0187E05595479537951E
:1003F00027958A95D1F7A8A1B0E00E94360824E09D
:1004000095958795779567952A95D1F7C61AD70A56
:10041000E80AF90AF7FE03C0C12CD12C7601C70106
:10042000B60161307105810529E192070CF52CE0D8
:1004300095958795779567952A95D1F70E94FB0A40
:1004400020E030E040E85AE30E94F90B0E94C40A21
:10045000862FDF91CF91FF90EF90DF90CF90BF90EC
:10046000AF909F908F907F906F905F904F90089586
:1004700060E070E080E099E1DACF2F923F924F92F6
:100480005F926F927F928F929F92AF92BF92CF9224
:10049000DF92EF92FF920F931F93CF93DF93CDB72D
:1004A000DEB7A2970FB6F894DEBF0FBECDBF9AA3FA
:1004B00089A30E9496000E94CE05A9A1BAA1119617
:1004C0008C910E94EE0587EF0E94EE050E94CE05FA
:1004D000E9A1FAA182810E94EE050E94DA058B8FC4
:1004E0000E94DA058F8F0E94E40588A30E94D6053A
:1004F000E9A1FAA184819581A681B7816C017D0172
:10050000FF0CCC08DC2C76019C01AD016C2D7C2D00
:100510008C2D9C2D345F414051096109710981097D
:10052000910929833D874E875F87688B798B1C01F2
:1005300059016A017B018C010E9449082B8B3C8B7D
:100540004D8B5E8B6F8B788F898F9A8FA9A1BAA103
:1005500051963C91519750962C91932F990F990B4E
:10056000492F592F692F792F892F0E9449080CE0B4
:100570000E94780929013A014B018D839A8BE9A1E8
:10058000FAA133892289932F990F990BAB88BC88E4
:10059000CD88DE88EF88F88C098D1A8D492F592F68
:1005A000692F792F892F0E94490808E00E9491093C
:1005B0005201630174010D811A890E94AE097058BD
:1005C0008F4F9F4FA9A1BAA11E96ED91FC915F019B
:1005D000D12CC12CE12CF12C8701ED83BE82CF827E
:1005E000D886E986FA860B871C87C12CD12CE12C92
:1005F000F12C00E010E00E94490801E20E949109FC
:100600002D83532E4A8B652E762E872E982E492EBB
:10061000A0E00E94C00909F455C1BF8C8B2D90E069
:10062000B0E0A0E0CB8C9C29BA2FA92F982F882767
:100630007C018D0128A1E22AEB8EFC8E0D8F1E8F8E
:10064000A9A1BAA159963C91599758962C91932FEC
:10065000990F990BAB88BC88CD88DE88EF88F88C21
:10066000098D1A8D492F592F692F792F892F0E94B3
:1006700049082B8B3C8B4D8B5E8B6F8B788F898FD2
:100680009A8FE9A1FAA137892689932F990F990B9F
:10069000A980BD84CE84DF84E888F9888101492F50
:1006A000592F692F792F892F0E94490801E10E9453
:1006B0007809AB88BC88CD88DE88EF88F88C098DF6
:1006C0001A8D0E94AE0959016A017B018D87192F8D
:1006D0004B8D5C8D6D8D7E8D34E07595679557954E
:1006E00047953A95D1F780E090E0A0E1B0E0841B17
:1006F000950BA60BB70B9C01AD01550F220B322FAA
:10070000A90129833A834B835C839C01AD016981F4
:10071000762F862F962F0FE10E94780929833E8736
:100720001A01B62FA72F8F87988BE9A1FAA13589D7
:100730002489932F990F990B492F592F692F792FBE
:10074000892F03E20E9478090D850E94AE095901A4
:100750006A017B018C0129813E85A1016B2F7A2FD3
:100760008F8598890E94B709E5E3AE2EFCE0BF2E85
:10077000C12CD12CE12CF12C00E010E00E944908A2
:10078000AD80B52CCA88D62CE72CF82C092D142D59
:100790000E94A30829833D874E875F87688B798BEA
:1007A0008D839A8B0DE00E949109922E832E742ED8
:1007B000652E562E472E382E292EA9A1BAA15F9656
:1007C0003C915F975E962C91932F990F990BA92CD2
:1007D000B82CC72CD62CE52CF42C032D122D492F28
:1007E000592F692F792F892F0E9449080E944908A3
:1007F00009E10E949109A980BD84CE84DF84E88844
:10080000F9880D811A890E94AE0919012A013B015C
:100810004C01E9A1FAA1358D248D932F990F990BE5
:10082000492F592F692F792F892F0E94490803E1F9
:100830000E94910959016A017B018C019101A20179
:10084000B301C4010E94AE0908E00E949109590158
:100850006A017B01E82F192FA9A1BAA15B963C91EF
:100860005B975A962C91932F990F990B492F592FDB
:10087000692F792F892F04E00E9478090E2F0E949A
:10088000AE090E94F30A20E030E040E85BE30E94FA
:10089000F90BA2960FB6F894DEBF0FBECDBFDF9165
:1008A000CF911F910F91FF90EF90DF90CF90BF906D
:1008B000AF909F908F907F906F905F904F903F9000
:1008C0002F90089560E070E0CB01E3CF1F93CF93AA
:1008D000DF93EC01162F0E94CE0589810E94EE0560
:1008E000812F0E94EE050E94CE058A810E94EE05AE
:1008F0000E94E405C82F0E94D6058C2FDF91CF916E
:100900001F9108951F93CF93DF93EC01162F0E9440
:10091000CE0589810E94EE05812F0E94EE050E947E
:10092000CE058A810E94EE050E94DA05C82FD0E02C
:10093000DC2FCC270E94E405C82B0E94D605CE01EF
:10094000DF91CF911F9108950E94820498278927F3
:10095000982708950E948204982789279827089548
:100960001F93CF93DF93EC0168E80E9482049827DD
:1009700089279827998788876AE8CE010E94820490
:100980009827892798279B878A876CE8CE010E9441
:1009900082049827892798279D878C876EE8CE0147
:1009A0000E9482049827892798279F878E8760E96D
:1009B000CE010E948204982789279827998B888BDB
:1009C00062E9CE010E9482049827892798279B8B91
:1009D0008A8B64E9CE010E94820498278927982790
:1009E0009D8B8C8B66E9CE010E9482049827892713
:1009F00098279F8B8E8B68E9CE010E9482049827EE
:100A000089279827998F888F6AE9CE010E948204EE
:100A10009827892798279B8F8A8F6CE9CE010E949F
:100A200082049827892798279D8F8C8F6EE9CE01A5
:100A30000E9482049827892798279F8F8E8F61EACA
:100A4000CE010E94660488A361EECE010E9482045A
:100A50009827892798279AA389A363EECE010E943D
:100A600066048BA364EECE010E946604182F65EE27
:100A7000CE010E94660490E1199F900111248F70AD
:100A8000282B3DA32CA366EECE010E946604182FEE
:100A900065EECE010E94660490E1199F9001112439
:100AA00090E09595879595958795959587959595DA
:100AB0008795822B932B9FA38EA367EECE010E9476
:100AC000660488A7DF91CF911F910895CF93DF939C
:100AD000EC010E94C0050E94CE0589810E94EE05AE
:100AE00080ED0E94EE050E94CE058A810E94EE05EF
:100AF0000E94E4058B830E94D6058B81803601F528
:100B00000E94CE0589810E94EE0580EE0E94EE05CE
:100B100086EB0E94EE050E94D60583EC99E00197D2
:100B2000F1F700C000000E94CE0589810E94EE0509
:100B300082EF0E94EE0585E00E94EE050E94D60538
:100B40000E94CE0589810E94EE0585EF0E94EE0588
:100B50008CE60E94EE0584EF0E94EE0587EB0E9472
:100B6000EE050E94D60587EA91E60197F1F700C0ED
:100B70000000CE010E94B0048B81DF91CF910895D7
:100B800080E28093B800ECEBF0E0808184608083A9
:100B900008958091BC0087FFFCCF089584EA80937C
:100BA000BC008091BC0087FFFCCF089584E980934E
:100BB000BC00089584EC8093BC008091BC0087FF4A
:100BC000FCCF8091BB00089584E88093BC008091A5
:100BD000BC0087FFFCCF8091BB0008958093BB00D1
:100BE00084E88093BC008091BC0087FFFCCF08950F
:100BF0001092C5008CE08093C400E0ECF0E08081AE
:100C00008260808388E18093C10086E08093C20087
:100C100008959091C00095FFFCCF8093C600089581
:100C20008091C00087FFFCCF8091C6000895DC0151
:100C30002C91222371F030E09091C00095FFFCCF01
:100C40002093C6003F5FFD01E30FF11D20812111BC
:100C5000F3CF0895DC012C91222371F030E09091C4
:100C6000C00095FFFCCF2093C6003F5FFD01E30F5E
:100C7000F11D20812111F3CF8091C00085FFFCCFB1
:100C80008AE08093C6008091C00085FFFCCF8DE094
:100C90008093C6000895682F70E027E030E0E1E31C
:100CA00080E3AB01022E02C0559547950A94E2F706
:100CB00040FF0AC09091C00095FFFCCFE093C600B2
:100CC0002150310970F708959091C00095FFFCCF35
:100CD0008093C6002150310920F7089529E2829FB0
:100CE000212D112422952F70205D9091C00095FF39
:100CF000FCCF2093C6002DEC829F912D1124969558
:100D000096959695929F212D1124269526952695A8
:100D1000322F330F330F230F220F921B20E3290FA3
:100D20009091C00095FFFCCF2093C6009DEC899F59
:100D3000912D1124969596959695292F220F220F85
:100D4000920F990F891B805D9091C00095FFFCCF99
:100D50008093C6000895FC01E03187E2F80708F0AF
:100D600049C0E83E83E0F807F0F1CF0168EE73E098
:100D70000E941308605D8091C00085FFFCCF6093E6
:100D8000C600CF0168EE73E00E941308FC01CF019A
:100D900064E670E00E941308605D8091C00085FFEA
:100DA000FCCF6093C600CF0164E670E00E94130898
:100DB000FC01CF016AE070E00E941308605D809141
:100DC000C00085FFFCCF6093C600CF016AE070E0F1
:100DD0000E941308FC01E05D8091C00085FFFCCFFC
:100DE000E093C6000895E436F10588F6EA30F1058F
:100DF00090F3DFCFAF01529542954F7045275F705A
:100E000045279A01A7E4B3E00E94270896958795A5
:100E10009695879596958795805D9091C00095FFF2
:100E2000FCCF8093C6009A01A7E4B3E00E94270894
:100E300096958795969587959695879540E157E283
:100E4000849F9001859F300D949F300D1124E21BEB
:100E5000F30B8BCF4F925F926F927F928F929F9204
:100E6000AF92BF92CF92DF92EF92FF924B015C0163
:100E7000742E20E030E0A9010E944D0A87FD3FC09A
:100E8000C501B4010E94C40A6B01CB010E94AB06EC
:100E90008091C00085FFFCCF8EE28093C600672D55
:100EA00070E090E080E00E94F90A9B01AC0160E0F4
:100EB00070E080E291E40E94660C2B013C01B601D7
:100EC00090E080E00E94F90A9B01AC01C501B401E9
:100ED0000E94E009A30192010E94F90B0E94C40A3A
:100EE000CB01FF90EF90DF90CF90BF90AF909F909D
:100EF0008F907F906F905F904F900C94AB06809195
:100F0000C00085FFFCCF8DE28093C600B7FAB09495
:100F1000B7F8B094B5CFCF93DF93CDB7DEB7A9972D
:100F20000FB6F894DEBF0FBECDBF0E94F80566E78E
:100F3000CE0101960E948C00CE0101960E946605AA
:100F4000803609F45BC08AE191E00E942A06219A6A
:100F500002E00DC08AE491E00E942A062FE38DE0B2
:100F600093E0215080409040E1F700C0000085B13F
:100F7000802785B9CE0101960E9496004B015C0145
:100F8000CE0101960E943D026B017C01CE010196CB
:100F90000E943A01182F83E391E00E94170642E075
:100FA000C501B4010E942A078AE491E00E942A0642
:100FB00081E491E00E94170620E030E048EC52E422
:100FC000C701B6010E94520A42E00E942A078AE441
:100FD00091E00E942A06112309F4BCCF8CE491E031
:100FE0000E941706812F0E946E068AE491E00E94FB
:100FF0002A068AE491E00E942A06ACCF80E091E0C4
:101000000E942A06A4CFDB018F939F930E9436088B
:10101000BF91AF91A29F800D911DA39F900DB29F94
:10102000900D1124089597FB072E16F4009407D015
:1010300077FD09D00E94CC0907FC05D03EF49095BD
:1010400081959F4F0895709561957F4F0895A29F58
:10105000B001B39FC001A39F700D811D1124911D8C
:10106000B29F700D811D1124911D08950E942708C3
:10107000A59F900DB49F900DA49F800D911D1124EC
:101080000895B7FF0C9436080E943608821B930B14
:101090000895DF93CF931F930F939A9DF02D219F77
:1010A000F00D8B9DF00D8A9DE02DF10D039FF00D4D
:1010B000029FE00DF11D4E9DE00DF11D5E9DF00DB6
:1010C0004F9DF00D7F936F93BF92AF925F934F93BD
:1010D000D5010E9427088B01AC01D7010E94270887
:1010E000EB01E80FF91FD6010E9498082F913F915C
:1010F000D6010E942708C60FD71FE81FF91FAF911E
:10110000BF910E9498082F913F910E942708C60F17
:10111000D71FE81FF91FD6010E942708E60FF71F07
:101120009801BE01CF010F911F91CF91DF910895DA
:101130000E942708460F571FC81FD91F08F4319671
:101140000895689401C0E894F92FF12B12F00C94E3
:10115000D508A0E0B0E0EFEAF8E00C944709092ECA
:10116000059422F40E943109112392F4F0E80F262D
:10117000FFEFE094F09400951095B094C094D09453
:10118000A194BF0ACF0ADF0AEF0AFF0A0F0B1F0B59
:101190000E94E00807FC0E943109CDB7DEB7ECE001
:1011A0000C946309689401C0E8948F929F92CF9346
:1011B000DF930E94E008DF91CF919F908F90089578
:1011C00088249924F401E401B0E49F93AA279A1596
:1011D0008B049C04ED05FE05CF05D007A10798F40C
:1011E000AD2FDC2FCF2FFE2FE92D982C892E982F95
:1011F000872F762F652F542F432F322F2227B85059
:1012000031F7BF9127C01B2EBF91BB27220F331F81
:10121000441F551F661F771F881F991F881C991C24
:10122000EE1FFF1FCC1FDD1FAA1FBB1F8A149B04CC
:10123000EC05FD05CE05DF05A007B10748F08A18CB
:101240009B08EC09FD09CE09DF09A00BB10B216059
:101250001A94E1F62EF49401AF01BE01CD01000C09
:10126000089560957095809590953095409550952E
:1012700021953F4F4F4F5F4F6F4F7F4F8F4F9F4F86
:1012800008952F923F924F925F926F927F928F922A
:101290009F92AF92BF92CF92DF92EF92FF920F9305
:1012A0001F93CF93DF93CDB7DEB7CA1BDB0B0FB60F
:1012B000F894DEBF0FBECDBF09942A8839884888CC
:1012C0005F846E847D848C849B84AA84B984C88462
:1012D000DF80EE80FD800C811B81AA81B981CE0F59
:1012E000D11D0FB6F894DEBF0FBECDBFED0108953E
:1012F000002E083090F0982F872F762F652F542FCF
:10130000432F322F22270850F4CF220F331F441FC0
:10131000551F661F771F881F991F0A95B2F7002D6A
:10132000089597FD1094002E083098F00850232F50
:10133000342F452F562F672F782F892F912DF4CFDB
:101340001594979587957795679557954795379510
:1013500027950A95AAF71124002D08952A0D3B1D03
:101360004C1D5D1D6E1D7F1D801F911F08952A1944
:101370003B094C095D096E097F09800B910B0895AB
:101380000024A7FD00942A1730054005500560058C
:101390007005800590050895AA1BBB1B51E107C08D
:1013A000AA1FBB1FA617B70710F0A61BB70B881FF5
:1013B000991F5A95A9F780959095BC01CD01089584
:1013C0005058BB27AA270E94F8090C94BF0B0E9413
:1013D000B10B38F00E94B80B20F039F49F3F19F49C
:1013E00026F40C949E0B0EF4E095E7FB0C94980BFE
:1013F000E92F0E94D00B58F3BA17620773078407CE
:10140000950720F079F4A6F50C94F20B0EF4E09514
:101410000B2EBA2FA02D0B01B90190010C01CA01AE
:10142000A0011124FF27591B99F0593F50F4503E59
:1014300068F11A16F040A22F232F342F4427585F4B
:10144000F3CF469537952795A795F0405395C9F763
:101450007EF41F16BA0B620B730B840BBAF091501B
:10146000A1F0FF0FBB1F661F771F881FC2F70EC0BA
:10147000BA0F621F731F841F48F48795779567958D
:10148000B795F7959E3F08F0B0CF9395880F08F079
:101490009927EE0F9795879508950E94740B08F48D
:1014A00081E008950E94660A0C94BF0B0E94B80B5D
:1014B00058F00E94B10B40F029F45F3F29F00C94E2
:1014C000980B51110C94F30B0C949E0B0E94D00BB3
:1014D00068F39923B1F3552391F3951B550BBB2763
:1014E000AA2762177307840738F09F5F5F4F220FA8
:1014F000331F441FAA1FA9F335D00E2E3AF0E0E89F
:1015000032D091505040E695001CCAF72BD0FE2FE8
:1015100029D0660F771F881FBB1F2617370748077C
:10152000AB07B0E809F0BB0B802DBF01FF27935834
:101530005F4F3AF09E3F510578F00C94980B0C9455
:10154000F30B5F3FE4F3983ED4F386957795679568
:10155000B795F7959F5FC9F7880F911D9695879569
:1015600097F90895E1E0660F771F881FBB1F621788
:1015700073078407BA0720F0621B730B840BBA0B46
:10158000EE1F88F7E09508950E94D80B88F09F57CA
:1015900098F0B92F9927B751B0F0E1F0660F771F97
:1015A000881F991F1AF0BA95C9F714C0B13091F08D
:1015B0000E94F20BB1E008950C94F20B672F782F84
:1015C0008827B85F39F0B93FCCF386957795679552
:1015D000B395D9F73EF490958095709561957F4FBE
:1015E0008F4F9F4F089597FB16F40E94A10B0C9408
:1015F000370BE89409C097FB3EF490958095709561
:1016000061957F4F8F4F9F4F9923A9F0F92F96E94E
:10161000BB279395F695879577956795B795F111C3
:10162000F8CFFAF4BB0F11F460FF1BC06F5F7F4F60
:101630008F4F9F4F16C0882311F096E911C0772372
:1016400021F09EE8872F762F05C0662371F096E87B
:10165000862F70E060E02AF09A95660F771F881F4A
:10166000DAF7880F9695879597F90895E894F92FFA
:1016700096EBFF2381F0121613061406440B939584
:10168000F69587957795679557954040FF23B9F76D
:101690001BC099270895882351F49850D2F7872BBF
:1016A000762F652F542F432F322F20E0B1F31216DF
:1016B00013061406440B88233AF09A95440F551FDD
:1016C000661F771F881FCAF755234AF4440F551F1A
:1016D00011F460FF04C06F5F7F4F8F4F9F4F880FE3
:1016E0009695879597F90895990F0008550FAA0BBD
:1016F000E0E8FEEF16161706E807F907C0F0121625
:101700001306E407F50798F0621B730B840B950B27
:1017100039F40A2661F0232B242B252B21F408957C
:101720000A2609F4A140A6958FEF811D811D089519
:1017300097F99F6780E870E060E008959FEF80EC84
:101740000895909580957095609550954095309549
:1017500021953F4F4F4F5F4F6F4F7F4F8F4F9F4FA1
:10176000089500240A941616170618060906089507
:1017700000240A9412161306140605060895092E6D
:101780000394000C11F4882352F0BB0F40F4BF2BDC
:1017900011F460FF04C06F5F7F4F8F4F9F4F08951C
:1017A00057FD9058440F551F59F05F3F71F0479512
:1017B000880F97FB991F61F09F3F79F087950895F7
:1017C000121613061406551FF2CF4695F1DF08C016
:1017D000161617061806991FF1CF86957105610533
:1017E00008940895E894BB2766277727CB0197F9DB
:1017F00008950E940C0C0C94BF0B0E94B10B38F0A2
:101800000E94B80B20F0952311F00C94980B0C94C7
:101810009E0B11240C94F30B0E94D00B70F3959F38
:10182000C1F3950F50E0551F629FF001729FBB27D7
:10183000F00DB11D639FAA27F00DB11DAA1F649F73
:101840006627B00DA11D661F829F2227B00DA11D26
:10185000621F739FB00DA11D621F839FA00D611DAC
:10186000221F749F3327A00D611D231F849F600DCD
:10187000211D822F762F6A2F11249F5750409AF0F6
:10188000F1F088234AF0EE0FFF1FBB1F661F771F82
:10189000881F91505040A9F79E3F510580F00C944D
:1018A000980B0C94F30B5F3FE4F3983ED4F38695CA
:1018B00077956795B795F795E7959F5FC1F7FE2BED
:1018C000880F911D9695879597F90895FA01EE0F67
:1018D000FF1F309621053105A1F16115710561F4F5
:1018E0008038BFE39B0749F168949038810561F027
:1018F0008038BFEF9B0741F099234AF5FF3FE10590
:101900003105210519F1E8940894E795D901AA2336
:1019100029F4AB2FBE2FF85FD0F310C0FF5F70F437
:10192000A695E0F7F73950F019F0FF3A38F49F77B1
:101930009F930DD00F9007FC9058089546F00C949B
:101940009E0B60E070E080E89FE308954FE79F778B
:101950005F934F933F932F930E94610D2F913F917F
:101960004F915F910E94F90B0C94BE0C29F416F074
:101970000C94980B0C94F20B0C949E0B0E94D80BB9
:10198000A8F39638A0F707F80F92E8942BE33AEA09
:1019900048EB5FE70E940F0C0F920F920F924DB72A
:1019A0005EB70F920E94A90DE8E6F0E00E94F00CED
:1019B0004F915F91EF91FF91E595EE1FFF1F49F069
:1019C000FE57E0684427EE0F441FFA95E1F7419572
:1019D000550B0E94230D0F9007FE0C94170D0895D0
:1019E000DF93CF931F930F93FF92EF92DF927B01D0
:1019F0008C01689406C0DA2EEF010E940C0CFE01E7
:101A0000E894A5912591359145915591A6F3EF0163
:101A10000E94F809FE019701A801DA9469F7DF90A6
:101A2000EF90FF900F911F91CF91DF9108959B014F
:101A3000AC0160E070E080E89FE30C94520A0C94E3
:101A4000980B0C94DD0D0E94D80BD8F39923C9F3A1
:101A5000940F511DA3F39150504094F059F08823F6
:101A600032F0660F771F881F91505040C1F79E3F9C
:101A700051052CF7880F911D9695879597F9089534
:101A80005F3FACF0983E9CF0BB27869577956795B5
:101A9000B79508F4B1609395C1F7BB0F58F711F4EF
:101AA00060FFE8CF6F5F7F4F8F4F9F4FE3CF0C9466
:101AB000F30B16F00C94DD0D0C949E0B68940C94B3
:101AC000980B0E94D80BA8F39923C1F3AEF3DF93D0
:101AD000CF931F930F93FF92C92FDD2788232AF0FE
:101AE0002197660F771F881FDAF720E030E040E883
:101AF0005FEB9FE3883920F0803E38F021968F77A6
:101B00000E94E109E0E9F0E004C00E94E109EDEB88
:101B1000F0E00E94F00C8B01BE01EC01FB2E6F5730
:101B200071097595771F880B990B0E94FB0A28E1B4
:101B300032E741E35FE30E940C0CAF2D9801AE0148
:101B4000FF900F911F91CF91DF910E94F8090C94A3
:101B5000BF0BFA01DC01AA0FBB1F9B01AC01BF57F1
:101B600028F4222733274427507820C0B75190F417
:101B7000AB2F0024469537952795011CA395D2F3EA
:101B8000002071F0220F331F441FB395DAF30ED0FB
:101B90000C94E00961307105A0E88A07B94630F479
:101BA0009B01AC016627772788279078309621F033
:101BB000208331834283538308959F3F31F09150B6
:101BC00020F4879577956795B795880F911D969521
:0A1BD000879597F90895F894FFCF68
:101BDA00537563636573733A204368697020494497
:101BEA00206973203078363021004572726F723A5C
:101BFA002043686970206E6F74206465746563742D
:101C0A0065640054656D70657261747572653A2019
:101C1A000050726573737572653A200048756D6974
:081C2A00646974793A2000009E
:00000001FF
